:1018000052C092C077C076C075C074C073C072C039
:1018100071C070C06FC06EC06DC06CC06BC06AC05C
:1018200069C068C067C07E3FF9F76A39F9F7563575
:10183000F9F74038F9F7EC2DFD2DB7B6B0FCFDCF28
:1018400027BFE895B7B6B0FCFDCF21E1B7B6B6FC2F
:10185000F4CF08950902120001010080320904004A
:1018600000000000000012011001FF000008C01677
:10187000DC050201010200010E0355005300420085
:101880006100730070001C037700770077002E0062
:10189000660069007300630068006C002E0064003D
:1018A00065000403090411241FBECFE5D4E0DEBFA8
:1018B000CDBF24B7D4E0CEE539913C30399109F061
:1018C0003FEF30939B0020939A0010E0A0E6B0E039
:1018D000E8ECFFE102C005900D92A636B107D9F7FA
:1018E00020E0A6E6B0E001C01D92AA39B207E1F7F8
:1018F0007DD168C385CFA82FB92F80E090E041E06B
:1019000050EA609530E009C02D9182279795879520
:1019100010F084279527305EC8F36F5FA8F3089511
:10192000EADF8D939D930895CF93CFB7CF93DF9345
:10193000C395879BE9F7879B0BC0879B09C0879B53
:1019400007C0879B05C0879B03C0879B01C089C0D8
:101950006F93C0917D00DD27CC57DF4F2F9365E556
:10196000879B03C02F916F91E6CF0F931F934F93E7
:1019700020E040E15F9300B3047807FB27F93F9331
:1019800050E03BE039C0147840642F77012F5F5F4F
:101990001EC0406810B314782F7752501FC04064A7
:1019A00000B32F770478D1F15F5F00C023C040629D
:1019B00010B32F77147891F15F5F00C025C00478D1
:1019C0001027515012F45D5F0000115027952C3FF5
:1019D00010B3C8F614780127015027952C3FC8F69C
:1019E0004227499300B3047810274F73115027956D
:1019F0002C3FA8F64695469510B3147879F0012748
:101A0000015027952C3F98F66B5A60F3315000B384
:101A1000B0F600C010E41ABF002717C03B50319544
:101A2000C31BD04010E41ABF0881033CF9F00B340B
:101A3000E9F020917B001981110F1213EDCF0936C7
:101A400051F10D3211F0013E39F7009382003F91C0
:101A50005F914F911F910F912F916F91CAB7C6FD62
:101A600067CFDF91CF91CFBFCF91189520918200A2
:101A7000222369F310918000112339F534303AF1B3
:101A80003093800020937C0010917D003BE0311B5F
:101A900030937D001CC0009180000130B4F40AE551
:101AA0003091600034FD14C000936000C0E7D0E0C6
:101AB00013C0052710E000C0000002BB1AC00527B4
:101AC00010E0221F1DC010E021C04AE502C032ED27
:101AD000432FC4E1D0E032E011B31468979A02B307
:101AE00011BB54E820E865E320FF052702BB2795DA
:101AF00017951C3FF0F66695B8F7B1F720FF05275C
:101B000002BB279517951C3FD0F62795179517FF11
:101B1000052700001C3F02BBB0F629913A9519F742
:101B20000B7710918100110FC651D04002BB11F00C
:101B300010937B0010E41ABF006811B31B77402F8D
:101B40004B7754E05A95F1F702BB11BB42BB7FCFF4
:101B5000F8948F9A96981BBE15BEF1E0FBBF1BBE92
:101B60004FC231978040E9F70895FC013381932FEC
:101B70004481842F2281203339F44370E42FF0E034
:101B8000EE59FF4F80810895283529F431110EC098
:101B9000E1E0F0E006C0203571F4311125C0E0E04D
:101BA000F0E089E080935700849108953830E1F4A3
:101BB000E3E0F0E0F6CF203221F4FC01EE0FFF1F4E
:101BC00006C0283231F4FC01EE0FFF1F31968491DC
:101BD0000895203A09F4E1C1203C19F46581E5D16A
:101BE00003C02F3F09F411EF80E0089511BA80E49B
:101BF00082BB81E08BBF82E08BBF84E0B2DF80914B
:101C00009A00877F21F480919B00882311F08699A8
:101C10009FDF1EEF14BE85B7826085BF8BB78064DF
:101C20008BBF8F9A80E19DDF8F9878940091800020
:101C3000035007FD27C180917D00CCE0D0E0C81B98
:101C4000D109CC57DF4F80917C008D3209F0B3C0B1
:101C5000083009F015C183EC809370008AE5809309
:101C6000600010926600888180762981882399F12E
:101C700087E690E090937F0080937E00233031F4DC
:101C8000CE0173DF80936A0024E08BC02530F9F029
:101C90002A30E9F0822F8450863098F48A819B8123
:101CA00090936C0080936B00293099F08E81809323
:101CB0006D008D81827080936E0020936F002FEFF6
:101CC00069C0223011F41E7F04C0116002C021E0FF
:101CD00068C020E066C08A8110927900211106C098
:101CE00010927A0089E790E022E04EC0253019F486
:101CF000809381003DC02630A9F59B81913019F475
:101D000086E698E104C0923041F484E598E190932E
:101D10007F0080937E0022E121C09330F1F4811195
:101D200008C082EA98E190937F0080937E0024E0CF
:101D300015C0813041F486E898E190937F0080934C
:101D40007E002CE10BC0823041F488E798E190934B
:101D50007F0080937E002EE001C020E080E480932D
:101D6000660016C0283069F0293029F4809383007A
:101D700089E790E004C089E790E02A3021F020E074
:101D800003C083E890E021E090937F0080937E0081
:101D90002F3F39F4888187FD2E8180E8809366008B
:101DA00007C08F81811104C08E81821708F4282F0B
:101DB0002093610065C08091660087FF61C08091BB
:101DC0006D00801708F4082F801B80936D00DD24C0
:101DD000D3948111D12C80916F008730B0F07E01B7
:101DE0000FC0D7016D917D0180916B0090916C00C7
:101DF0009C012F5F3F4F30936C0020936B00D5D038
:101E00008E2D8C1B801768F338C080916E00E09196
:101E10006B00F0916C00DE0100FD0395025048F16B
:101E2000F83138F522D0F8940D901D9021E017D0AC
:101E30002E2F2E5F2F7331F0DD2079F0882369F08B
:101E4000003059F423E00BD010D025E008D00DD09D
:101E500007B606FE02C021E102D03296DFCFF89429
:101E600027BFE89511247894089507B600FCFDCFAC
:101E70000895F0936C00E0936B00D1101092610014
:101E8000109280008091600084FF71C08091610099
:101E90008F3F09F46CC0082F893008F008E0801BE0
:101EA000809361008091700098E88927809370008A
:101EB000002309F44BC08091660087FF29C0809100
:101EC0006D00801708F4082F801B80936D00D09060
:101ED0006F00C1E7D0E015C0E0906B00F0906C009F
:101EE000B6E0BD1518F4C70158D002C0F7018491BF
:101EF00088832196FFEFEF1AFF0AF0926C00E092C0
:101F00006B0081E790E02C2F281B201728F31CC0C2
:101F1000E0917E00F0917F00A1E7B0E086FF09C06C
:101F200084918D93319681E790E0800F8A13F8CFEA
:101F300007C081918D9381E790E0800F8A13F9CFDC
:101F4000F0937F00E0937E00093058F4602F81E722
:101F500090E0E6DC0C5F0C3041F08FEF8093610085
:101F600004C08FEF809361000EE10093600084E174
:101F700090B3947831F48150D9F710928100109287
:101F80007B00103118F08699105104C0123010F007
:101F9000869B125011114ACE3BCEE199FECF9FBBDA
:101FA0008EBBE09A99278DB30895262FE199FECF35
:101FB0009FBB8EBB2DBB0FB6F894E29AE19A0FBE81
:081FC00001960895F894FFCF8B
:061FC8005AFF1E93070002
:0400000300001800E1
:00000001FF
