:1070000073C00000B2C0000096C0000094C0000031
:1070100092C0000090C000008EC000008CC0000034
:107020008AC0000088C0000086C0000084C0000044
:1070300082C0000080C000007EC000007CC0000054
:107040007AC0000078C0000076C0000074C0000064
:1070500072C0000070C000006EC000006CC0000074
:107060006AC0000068C000007E3FF9F76A39F9F78E
:107070005635F9F74038F9F7EC2DFD2DB7B6B0FCD1
:10708000FDCF27BFE895B7B6B0FCFDCF21E1B7B67D
:10709000B6FCF4CF08950902120001010080320904
:1070A000040000000000000012011001FF000008B1
:1070B000C016DC050201010200010E035500530059
:1070C00042006100730070001C03770077007700B6
:1070D0002E00660069007300630068006C002E00DB
:1070E000640065000403090411241FBECFEFD8E03B
:1070F000DEBFCDBF24B7D8E0CEEF39913833399118
:1071000009F03FEF30933E0120933D0111E0A0E0F4
:10711000B1E0EAE9F8E702C005900D92A630B107A8
:10712000D9F721E0A6E0B1E001C01D92AD33B2076E
:10713000E1F777D1B0C364CFA82FB92F80E090E0FA
:1071400041E050EA609530E009C02D918227979583
:10715000879510F084279527305EC8F36F5FA8F3FA
:107160000895EADF8D939D930895CF93CFB7CF9382
:10717000DF93C3954F9BE9F74F9B0BC04F9B09C013
:107180004F9B07C04F9B05C04F9B03C04F9B01C047
:1071900089C06F93C0912001DD27C95DDE4F2F9319
:1071A00065E54F9B03C02F916F91E6CF0F931F931F
:1071B0004F9320E040E15F9309B1047807FB27F982
:1071C0003F9350E03BE039C0147840642F77012FA3
:1071D0005F5F1EC0406819B114782F7752501FC0EE
:1071E000406409B12F770478D1F15F5F00C023C0FC
:1071F000406219B12F77147891F15F5F00C025C00C
:1072000004781027515012F45D5F0000115027954B
:107210002C3F19B1C8F614780127015027952C3F4F
:10722000C8F64227499309B1047810274F731150CB
:1072300027952C3FA8F64695469519B1147879F014
:107240000127015027952C3F98F66B5A60F3315077
:1072500009B1B0F600C011E01CBB002717C03B50BD
:107260003195C31BD04011E01CBB0881033CF9F0F1
:107270000B34E9F020911E011981110F1213EDCF8B
:10728000093651F10D3211F0013E39F70093250115
:107290003F915F914F911F910F912F916F91CCB3BF
:1072A000C0FD67CFDF91CF91CFBFCF9118952091CF
:1072B0002501222369F310912301112339F534307C
:1072C0003AF13093230120931F01109120013BE0FC
:1072D000311B309320011CC0009123010130B4F414
:1072E0000AE53091000134FD14C000930001C3E1B0
:1072F000D1E013C0052710E000C000000BB91AC090
:10730000052710E0221F1DC010E021C04AE502C081
:1073100032ED432FC4E1D0E032E01AB114685F9A35
:107320000BB11AB954E820E865E320FF05270BB933
:10733000279517951C3FF0F66695B8F7B1F720FF33
:1073400005270BB9279517951C3FD0F6279517955C
:1073500017FF052700001C3F0BB9B0F629913A959D
:1073600019F70B7710912401110FC651D0400BB9BA
:1073700011F010931E0111E01CBB00681AB11B77BD
:10738000402F4B7754E05A95F1F70BB91AB94BB926
:107390007FCFFC013381932F4481842F22812033BE
:1073A00039F44370E42FF0E0EE5FFE4F80810895E2
:1073B000283529F431110EC0E1E0F0E006C0203597
:1073C00099F431110CC0E0E0F0E089E080935700BF
:1073D00084910895383019F5E3E0F0E0F6CF3830C5
:1073E000F1F4E2E0F0E0F1CF203221F4FC01EE0F05
:1073F000FF1F06C0283231F4FC01EE0FFF1F31964B
:1074000084910895203A09F430C2203C19F4658132
:1074100034D205C02F3F19F481EF8093060180E03C
:1074200008951AB880E48BB981E085BF82E085BFFA
:107430002FEF80E792E0215080409040E1F700C0BC
:10744000000080913D01877F21F480913E018823D7
:1074500081F04E9B0EC0F894579A1BB81DBA10923B
:10746000690081E085BF15BEE0911101F091120124
:1074700009958EEF8093060184B7877F84BF88E1EA
:107480000FB6F89480936000109260000FBE14BE97
:1074900080916900826080936900E89A579AEFEFC3
:1074A000F1EB2CE0E150F0402040E1F700C000009B
:1074B0005798789400912301035007FD3BC18091B8
:1074C0002001CCE0D0E0C81BD109C95DDE4F80911E
:1074D0001F018D3209F0B7C0083009F029C183ECD3
:1074E000809313018AE5809300011092070188813F
:1074F000807629818823B9F188E091E09093220178
:1075000080932101233031F4CE0143DF80930B01BE
:1075100024E08FC0253019F12A3009F1822F8450E0
:10752000863098F48A819B8190930D0180930C01A1
:107530002930B9F08E8180930E018D818270809305
:107540000F01209310012FEF6DC0809106012230B2
:1075500011F48E7F01C081608093060102C021E09A
:1075600068C020E066C08A8110921C01211106C00B
:1075700010921D018CE191E022E04EC0253019F4FB
:10758000809324013DC02630A9F59B81913019F4E8
:1075900088EA90E704C0923041F486E990E790933E
:1075A00022018093210122E121C09330F1F4811165
:1075B00008C084EE90E7909322018093210124E09B
:1075C00015C0813041F488EC90E7909322018093BC
:1075D00021012CE10BC0823041F48AEB90E79093BB
:1075E0002201809321012EE001C020E080E48093FD
:1075F000070116C0283069F0293029F4809326014C
:107600008CE191E004C08CE191E02A3021F020E08F
:1076100003C086E291E021E0909322018093210152
:107620002F3F39F4888187FD2E8180E88093070100
:1076300007C08F81811104C08E81821708F4282F22
:107640002093010175C08091070187FF71C080916F
:107650000E01801708F4082F801B80930E01FF2471
:10766000F3948111F12C10E05DC020911001809104
:107670000C0190910D01273058F069919C012F5F0A
:107680003F4F30930D0120930C01F7D01F5F4AC08C
:107690008115904708F04AC01E5FF894E0910C01F4
:1076A000F0910D018991999121E00C0120935700EF
:1076B000E8951124789480910C0190910D01029627
:1076C00090930D0180930C018F779927892B41F0BE
:1076D000FF2041F1101730F180910F01882311F143
:1076E000F894E0910C01F0910D01329783E08093C2
:1076F0005700E895789407B600FCFDCFF894E09128
:107700000C01F0910D01329785E080935700E895C8
:10771000789407B600FCFDCFF89481E18093570080
:10772000E8957894101708F4A0CFF1101092010199
:10773000109223018091000184FF73C080910101A8
:107740008F3F09F46EC0F82E893010F028E0F22E39
:107750008F19809301018091130198E88927809304
:107760001301FF2009F44BC08091070187FF28C057
:1077700080910E018F1508F4F82E8F1980930E0159
:10778000E0901001C4E1D1E014C000910C0110910F
:107790000D01F6E0FE1518F4C80167D002C0F8012B
:1077A0008491888321960F5F1F4F10930D010093E2
:1077B0000C0184E191E0FC2FF81BFF1530F31CC095
:1077C000E0912101F0912201A4E1B1E086FF09C01E
:1077D00084918D93319684E191E08F0D8A13F8CFD7
:1077E00007C081918D9384E191E08F0D8A13F9CFC9
:1077F000F0932201E093210128E02F1560F06F2D16
:1078000084E191E0AEDC8F2D8C5F8C3041F09FEFF6
:107810009093010104C08FEF809301018EE180936A
:10782000000184E199B1947831F48150D9F7109234
:10783000240110921E0180910601803130F04E9B90
:107840000FC080910601805109C04E9909C08091F6
:107850000601823028F08091060182508093060153
:1078600080910601811126CEF6CDF999FECF92BD09
:1078700081BDF89A992780B50895262FF999FECFF2
:107880001FBA92BD81BD20BD0FB6F894FA9AF99A3D
:0A7890000FBE01960895F894FFCF93
:06789A005AFF1E950F00CD
:040000030000700089
:00000001FF
