:10000000FFC1FFC1FFC1FFC1FFC1FFC1FFC1FFC1F0
:10001000FFC1FFC1FFC1FFC1FFC1FFC1FFC1FFC1E0
:10002000FFC1FFC1FFC1FFFFFFFFFFFFFFFFFFFF9A
:10003000FFFFFFFFFFFFFFFFFFFFFFFFFFFFFFFFD0
:10004000FFFFFFFFFFFFFFFFFFFFFFFFFFFFFFFFC0
:10005000FFFFFFFFFFFFFFFFFFFFFFFFFFFFFFFFB0
:10006000FFFFFFFFFFFFFFFFFFFFFFFFFFFFFFFFA0
:100400003BC0A7C154C053C052C051C050C04FC020
:100410004EC04DC04CC04BC04AC049C048C047C088
:1004200046C045C044C009021200010100801909FC
:10043000040000000000000012011001FF0000088D
:10044000C016DC050401010200010E035500530033
:1004500042006100730070001C0377007700770092
:100460002E00660069007300630068006C002E00B7
:10047000640065000403090411241FBECFE5D4E025
:10048000DEBFCDBF10E0A0E6B0E0ECE5F5E102C0D4
:1004900005900D92A236B107D9F710E0A2E6B0E0C0
:1004A00001C01D92AA3AB107E1F738D855C8A8CFC4
:1004B000CF93DF9360918800635067FD14C0209153
:1004C00085008CE090E0821B9109EC01C457DF4F5E
:1004D000209184002D3209F455C08091620087FD7F
:1004E00078C0109288008091600084FF3EC06091C7
:1004F00061006F3FD1F1693018F16850609361007D
:100500008091780098E889278093780068E080914E
:10051000620087FD94C0E0918600F091870086FF1D
:1005200062C0862FA9E7B0E094919D9331968150E7
:10053000D9F7F0938700E0938600C62FCC5F0BC0FD
:10054000109261008091780098E889278093780064
:100550006623E9F6C4E089E790E0F7D0CC3019F0E3
:100560008FEF80936100C093600094E180B3847842
:1005700031F49150D9F71092890010928300DF91E5
:10058000CF910895683009F0ACCF23EC2093780028
:100590002AE520936000109262002881207699F568
:1005A0003A811092810029812223C1F510928200A4
:1005B00021E830E082E030938700209386009F811D
:1005C000992321F49E81981708F4892F8093610064
:1005D00088CFCE01D6D68F3FF1F1882309F481CFA1
:1005E000109261007ECFDF01862FC9E7D0E09D9198
:1005F0009993FD018150D9F7F0938700E09386002D
:10060000C62FCC5FA8CFCE0180D48F3FC1F6988192
:1006100097FD2BC090E890936200D8CF2530F9F079
:10062000263029F1283009F43FC0293009F440C0B0
:100630002A3009F453C021E830E080E0BCCF89E7DC
:1006400090E028D6682F893008F458C08FEF809347
:100650006100CEE188CF8EE18093600042CF30937D
:10066000890021E830E080E0A6CF8E81D3CFFC0165
:10067000E257FF4F208181579F4FFC0180818130DD
:1006800029F18230D9F0833029F080E090E4909312
:10069000620095CF222331F584E794E090938700A0
:1006A0008093860084E0F2CF2BE830E081E083CFB6
:1006B00030938B0021E830E080E07DCF86E294E04B
:1006C000909387008093860082E1E0CF88E394E0F6
:1006D000909387008093860082E1D8CF21E830E0B4
:1006E00081E069CF213069F0223079F68AE494E024
:1006F00090938700809386008EE0C8CFC82FCC5F90
:100700002ACF88E594E090938700809386008CE15F
:10071000BDCF85B7836085BF8BB780648BBF0895DD
:10072000A82FB92F80E090E041E050EA609530E0DA
:1007300009C02D9182279795879510F084279527DA
:10074000305EC8F36F5FA8F30895EADF8D939D9341
:100750000895CF93CFB7CF93DF93C395879BE9F7E6
:10076000879B0BC0879B09C0879B07C0879B05C0E1
:10077000879B03C0879B01C089C06F93C091850090
:10078000DD27C457DF4F2F9365E5879B03C02F916B
:100790006F91E6CF0F931F934F9320E040E15F935B
:1007A00000B3047807FB27F93F9350E03BE039C0E2
:1007B000147840642F77012F5F5F1EC0406810B32C
:1007C00014782F7752501FC0406400B32F770478FD
:1007D000D1F15F5F00C023C0406210B32F7714785F
:1007E00091F15F5F00C025C004781027515012F4CA
:1007F0005D5F0000115027952C3F10B3C8F61478A8
:100800000127015027952C3FC8F64227499300B392
:10081000047810274F73115027952C3FA8F6469562
:10082000469510B3147879F00127015027952C3F95
:1008300098F66B5A60F3315000B3B0F600C010E484
:100840001ABF002717C03B503195C31BD04010E49E
:100850001ABF0881033CF9F00B34E9F020918300C2
:100860001981110F1213EDCF093651F10D3211F02C
:10087000013E39F700938A003F915F914F911F919C
:100880000F912F916F91CAB7C6FD67CFDF91CF91BE
:10089000CFBFCF91189520918A00222369F3109140
:1008A0008800112339F534303AF1309388002093D1
:1008B0008400109185003BE0311B309385001CC003
:1008C000009188000130B4F40AE53091600034FDF5
:1008D00014C000936000C8E7D0E013C0052710E003
:1008E00000C0000002BB1AC0052710E0221F1DC077
:1008F00010E021C04AE502C032ED432FC4E1D0E050
:1009000032E011B31468979A02B311BB54E820E89F
:1009100065E320FF052702BB279517951C3FF0F6DE
:100920006695B8F7B1F720FF052702BB2795179505
:100930001C3FD0F62795179517FF052700001C3F91
:1009400002BBB0F629913A9519F70B7710918900FF
:10095000110FC651D04002BB11F01093830010E478
:100960001ABF006811B31B77402F4B7754E05A959C
:10097000F1F702BB11BB42BB7FCF8FB9779BFECF94
:100980008FB10895DC01CB0121E1B695A79597952C
:1009900087952A95D1F72091A6002817D9F0809342
:1009A000A600E091A300F091A4008DE40995E091E8
:1009B000A300F091A40080E00995E091A300F091DC
:1009C000A4008091A6000995E091A300F091A400F5
:1009D00080E0099508958091A5008DB98091A200CD
:1009E0008EB908958823B1F08830E0F52DE535E023
:1009F0003093A4002093A300843021F18530D0F0FF
:100A0000863029F1863030F18730C1F483E080935D
:100A1000A70008958DEB94E09093A4008093A30029
:100A200081E08093A70082E58093A50081E0809318
:100A3000A2000895823091F0833041F080EC8093E1
:100A4000A700089588E18093A700089580E380932C
:100A5000A70008958CE08093A700089580E6809316
:100A6000A70008952DEB34E03093A4002093A30059
:100A70001092A20091E09093A700893041F08A3053
:100A800050F4883081F683E58093A500089582E5CF
:100A90008093A50008958B3021F08C3021F690933F
:100AA000A20081E58093A500089522B79091A70048
:100AB00082B7821B8917E0F308951F93CF93DF93CA
:100AC000182FD8E0C0E00BC0C398110FCC0FB49919
:100AD000CF5FC59AEADFC598E8DFD15021F017FF54
:100AE000F3CFC39AF2CF8C2FDF91CF911F9108954E
:100AF00087B38C6287BBC298C598D7DFC29AD5DF0F
:100B0000C2988091A3009091A40024E08D3B9207AD
:100B100019F01092A60008955EDF1092A6000895C5
:100B200087B3837D87BB88B3837D88BB1DB8089559
:100B3000CF93DF93C0E202C0C15061F1E091A30006
:100B4000F091A4008CEA0995E091A300F091A40033
:100B500083E50995E091A300F091A40080E0099558
:100B6000D82FE091A300F091A40080E00995D3353F
:100B7000A9F01DB89ADFC29A98DFC29896DF8091DB
:100B8000A3009091A40024E08D3B9207A9F623DFF7
:100B9000C150A1F681E0DF91CF91089580E0DF910F
:100BA000CF910895CF92DF92EF92FF926B017C017B
:100BB000E9DE8C2D8170880F880F880FE091A300EB
:100BC000F091A40080620995D701C60139E0B6957D
:100BD000A795979587953A95D1F7E091A300F09165
:100BE000A4000995D701C601B695A7959795879555
:100BF000E091A300F091A4000995E091A300F09189
:100C0000A40080E00995FF90EF90DF90CF900895C9
:100C1000CF92DF92EF92FF920F931F93CF93DF93C8
:100C20000F92CDB7DEB76B017C01142F2983AADEAA
:100C30008C2D8170880F880F880FE091A300F091B0
:100C4000A40080640995D701C60159E0B695A7951F
:100C5000979587955A95D1F7E091A300F091A4005C
:100C60000995D701C601B695A79597958795E09107
:100C7000A300F091A4000995E091A300F091A400D5
:100C8000812F09952981222399F01F37E1F002B7BE
:100C90001EE1C701B60186DF8F3751F482B7801B92
:100CA000813510F002B71150112399F781E001C08E
:100CB00080E00F90DF91CF911F910F91FF90EF9007
:100CC000DF90CF9008958FE0ABD080E0F2CFCF924D
:100CD000DF92EF92FF920F931F93CF93DF930F92C8
:100CE000CDB7DEB76B017C0149834CDEE091A300F8
:100CF000F091A4008CE40995D701C60129E0B695CE
:100D0000A795979587952A95D1F7E091A300F09143
:100D1000A4000995D701C601B695A7959795879523
:100D2000E091A300F091A4000995E091A300F09157
:100D3000A40080E0099549814F3FE1F002B71EE130
:100D4000C701B6012FDF8F3F99F482B7801B813531
:100D500010F002B71150112399F781E00F90DF9145
:100D6000CF911F910F91FF90EF90DF90CF9008955A
:100D700080E0F4CF8FE054D080E0F0CF1F93CF938A
:100D8000DF930F92CDB7DEB7182FE091A300F0915B
:100D9000A40080EA99830995E091A300F091A40052
:100DA0009981892F0995E091A300F091A400812FEA
:100DB0000995E091A300F091A40080E009950F90BF
:100DC000DF91CF911F9108951F93CF93DF9300D0B0
:100DD000CDB7DEB7182FE091A300F091A40080EC0E
:100DE0006A8399830995E091A300F091A400998109
:100DF000892F0995E091A300F091A400812F099516
:100E0000E091A300F091A4006A81862F09958EE1FC
:100E100007D080E00F900F90DF91CF911F91089540
:100E2000882349F030E022B792B7921B9035E0F367
:100E30003F5F3817C1F70895BD9ABB98C39A50E237
:100E400017D05A95E9F70895AC0188E605D0842FAC
:100E500003D089E601D0852F0FD028E030E0382775
:100E600080FB869506D02A95D1F730FB02D000D0C2
:100E70006894BB98C39A16F0C398BB9AE091A800F7
:100E8000F091A9003197F0F7C59AE6B3E3FBE09142
:100E9000A800F091A9003197F0F7C598089520ECCB
:100EA000E7DF46F42A95E1F780E02AE1E5DF2A95BD
:100EB000E9F7DECF28E030E0DBDF869587F93827D9
:100EC0002A95D1F7D5DF27F9322772F3D1DFD0CFBA
:100ED000DB01742FB9DF84E2BFDFE1DF8D937A9508
:100EE000D1F70895DB01742FAFDF83EFB5DF8DE11C
:100EF000B3DF84E6B1DF8D91AFDF82E7ADDFCFDF17
:100F00008078D9F77A9589F70895CF93DF93EC012C
:100F10008981813089F1823009F4B2C0833009F4CB
:100F200064C08430A9F1873009F485C0853009F4A4
:100F300014C1863009F4A8C0883009F4E3C08930B0
:100F400009F410C18A3009F43FC18B3009F46FC134
:100F50008C3009F481C18D3009F493C18E3009F4CD
:100F600095C18F3009F40FC1803109F434C18F3736
:100F700009F452C180E030C08D9A869B58C0959A82
:100F800085E030DD10926300939AB2DD80E024C0EA
:100F900080916300882391F43B8120E08A8190E076
:100FA000822B932BAA2797FDA095BA2F80936C00D4
:100FB00090936D00A0936E00B0936F003F8120E08E
:100FC0008E8190E0822B932B909371008093700020
:100FD00082E0809372008FEF24E630E03093870048
:100FE00020938600DF91CF910895E091A300F091C6
:100FF000A4008A81099580936400E091A300F09198
:10100000A4008B81099580936500E091A300F09185
:10101000A4008C81099580936600E091A300F09173
:10102000A4008D8109958093670084E0D5CF9598C1
:1010300088E0D8DCA7CF80916300882391F43B81BE
:1010400020E08A8190E0822B932BAA2797FDA09520
:10105000BA2F80936C0090936D00A0936E00B093B4
:101060006F003F8120E08E8190E0822B932B909344
:1010700071008093700083E0809372008FEFACCF9B
:101080004FDD939880E0A8CF80916300882391F48E
:101090003B8120E08A8190E0822B932BAA2797FD49
:1010A000A095BA2F80936C0090936D00A0936E0072
:1010B000B0936F003C818D81282F2F702093750095
:1010C00090E0807F907082959295907F9827807FA6
:1010D0009827830F911D909374008093730020FFD5
:1010E00002C0809376003F8120E08E8190E0822BC9
:1010F000932B909371008093700081E08093720035
:101100008FEF6ACF80916300882391F43B8120E0C8
:101110008A8190E0822B932BAA2797FDA095BA2F66
:1011200080936C0090936D00A0936E00B0936F005D
:101130001092740010927300109275003F8120E0AD
:101140008E8190E0822B932B90937100809370009E
:1011500084E0809372008FEF3FCFEADC80936400DD
:1011600081E03ACF81E0809363008A819B81AC81EA
:10117000BD8180936C0090936D00A0936E00B0933E
:101180006F0080E029CF3B8120E08A8190E0822BB4
:10119000932BAA2797FDA095BA2F80936C0090936C
:1011A0006D00A0936E00B0936F003F8120E08E81B0
:1011B00090E0822B932B909371008093700085E0D8
:1011C000809372008FEF08CF8A818093770010920E
:1011D000640081E001CF3B8120E08A8190E0822B96
:1011E000932BAA2797FDA095BA2F80936C0090931C
:1011F0006D00A0936E00B0936F003F8120E08E8160
:1012000090E0822B932B909371008093700086E086
:10121000809372008FEFE0CE81E0809364001092A3
:101220006500109266001092670084E0D5CE3B8185
:1012300020E08A8190E0822B932B9093A9008093E9
:10124000A800C29ABA9A83E0EBDDC298939A80E133
:10125000E7DDF2DD80E0C0CE80ECFEDD80E0FCDD8D
:101260008AE0DEDDC29A85E0DBDDC29885E0D8DD6C
:1012700087B3837D87BB88B3837D88BB939880E0E9
:10128000ABCE0DDE8093640081E0A6CE8A81E4DDE2
:1012900080E0A2CEEF92FF920F931F93CF93DF9344
:1012A000482F792FF62E80917200982F925092300D
:1012B00068F0853009F449C0FF24FA948F2DDF913E
:1012C000CF911F910F91FF90EF900895662399F1B0
:1012D00000916C0010916D0020916E0030916F00B4
:1012E000C42FD72FEE241DC0C80148DD888300918C
:1012F0006C0010916D0020916E0030916F000F5FB7
:101300001F4F2F4F3F4F00936C0010936D002093A1
:101310006E0030936F00E3942196EF1449F08091B2
:101320007200823009F7C901B8013CDC8883DFCF45
:1013300087E08F1518F2109272008F2DDF91CF91F8
:101340001F910F91FF90EF90089580916C00909104
:101350006D00642F4F2DBCDD80916C0090916D006D
:10136000A0916E00B0916F008F0D911DA11DB11D58
:1013700080936C0090936D00A0936E00B0936F000B
:101380009DCFFF920F931F93CF93DF93282F792F39
:10139000D62F30917200313071F0343061F0363038
:1013A00009F48EC0FF24FA948F2DDF91CF911F9105
:1013B0000F91FF900895DD2309F4AEC080916C0079
:1013C00090916D00A0916E00B0916F00022F172FC9
:1013D000C0E0FF2451C02091730030917400BC0123
:1013E000CD01F80140812115310509F04FC021E000
:1013F0000FDC8091700090917100019790937100C3
:10140000809370000097E9F410927200809175004B
:1014100081FF39C02091760030E080917300909177
:1014200074002817390779F160916C0070916D0094
:1014300080916E0090916F00F801408148DCFF249C
:10144000F39480916C0090916D00A0916E00B0912A
:101450006F000196A11DB11D80936C0090936D00EB
:10146000A0936E00B0936F00CF5F0F5F1F4FCD173B
:1014700009F49ACF30917200313009F4ACCFF80101
:101480006081A2DCB6CFFF24F394DBCF20E0C0DB89
:1014900080917600815080937600882309F0A9CF4F
:1014A00060916C0070916D0080916E0090916F0062
:1014B000F80140810CDC809173008093760099CF15
:1014C00080916C0090916D00622F4D2F0BDD80910B
:1014D0006C0090916D00A0916E00B0916F008D0F27
:1014E000911DA11DB11D80936C0090936D00A09380
:1014F0006E00B0936F0080917000909171008D1B11
:1015000091099093710080937000009729F41092D4
:101510007200FF24F39448CFFF2446CF88E10FB632
:10152000F89481BD11BC0FBE8F9AB89A81B38862BE
:1015300081BBC09A969A8FEF95EAAEE081509040B9
:10154000A040E1F700C0000083E083BF8F98E1D89E
:0E1550007894AED7ADD7FDCFF894FFCF5AFFF9
:00000001FF
