:100000000C9400280C9402280C9404280C940628C4
:100010000C9408280C940A280C940C280C940E2894
:100020000C9410280C9412280C9414280C94162864
:100030000C9418280C941A280C941C280C941E2834
:100040000C9420280C9422280C9424280C94262804
:100050000C9428280C942A280C942C280C942E28D4
:100060000C943028FFFFFFFFFFFFFFFFFFFFFFFFA4
:10007000FFFFFFFFFFFFFFFFFFFFFFFFFFFFFFFF90
:10008000FFFFFFFFFFFFFFFFFFFFFFFFFFFFFFFF80
:10009000FFFFFFFFFFFFFFFFFFFFFFFFFFFFFFFF70
:1000A000FFFFFFFFFFFFFFFFFFFFFFFFFFFFFFFF60
:105000005CC00000CBC1000075C0000073C0000090
:1050100071C000006FC000006DC000006BC00000D8
:1050200069C0000067C0000065C0000063C00000E8
:1050300061C000005FC000005DC000005BC00000F8
:1050400059C0000057C0000055C0000053C0000008
:1050500051C000004FC000004DC000004BC0000018
:1050600049C0000047C00000090212000101008091
:105070001909040000000000000012011001FF00E7
:105080000008C016DC050401010200010E035500F2
:10509000530042006100730070001C03770077002A
:1050A00077002E00660069007300630068006C00E2
:1050B0002E00640065000403090411241FBECFEF15
:1050C000D8E0DEBFCDBF11E0A0E0B1E0ECEAF1E650
:1050D00002C005900D92A230B107D9F711E0A2E00D
:1050E000B1E001C01D92AA34B107E1F70E94B430CB
:1050F0000C94D43085CFCF93DF9360912801635017
:1051000067FD14C0209125018CE090E0821B91097D
:10511000EC01C45DDE4F209124012D3209F456C00C
:105120008091020187FD79C01092280180910001D1
:1051300084FF3FC0609101016F3F09F43AC06930BC
:1051400018F16850609301018091180198E889274F
:105150008093180168E08091020187FD95C0E0917D
:105160002601F091270186FF63C0862FA9E1B1E0F7
:1051700094919D9331968150D9F7F0932701E09354
:105180002601C62FCC5F0BC010920101809118013F
:1051900098E88927809318016623E9F6C4E089E13D
:1051A00091E0F8D0CC3019F08FEF80930101C093DB
:1051B000000194E189B1847831F49150D9F71092CB
:1051C000290110922301DF91CF910895683009F0F1
:1051D000ABCF23EC209318012AE520930001109215
:1051E000020128812076A1F53A81109221012981BE
:1051F0002223C9F51092220121E231E082E03093AE
:105200002701209326019F81992321F49E819817DD
:1052100008F4892F8093010187CFCE01D8D68F3F24
:1052200009F43EC0882309F47FCF109201017CCF9E
:10523000DF01862FC9E1D1E09D919993FD01815055
:10524000D9F7F0932701E0932601C62FCC5FA7CFB3
:10525000CE0181D48F3FB9F6988197FD2BC090E89D
:1052600090930201D7CF2530F9F0263029F128306C
:1052700009F43FC0293009F440C02A3009F453C072
:1052800021E231E080E0BBCF89E191E029D6682FAF
:10529000893008F458C08FEF80930101CEE187CFA9
:1052A0008EE18093000140CF3093290121E231E06B
:1052B00080E0A5CF8E81D3CFFC01E25DFE4F20813F
:1052C000815D9E4FFC018081813029F18230D9F0CF
:1052D000833029F080E090E49093020194CF222360
:1052E00031F586EB90E5909327018093260184E0C9
:1052F000F2CF2BE231E081E082CF30932B0121E22B
:1053000031E080E07CCF88E690E5909327018093A0
:10531000260182E1E0CF8AE790E590932701809310
:10532000260182E1D8CF21E231E081E068CF21304F
:1053300069F0223079F68CE890E59093270180930C
:1053400026018EE0C8CFC82FCC5F29CF8AE990E52F
:1053500090932701809326018CE1BDCFE9E6F0E030
:10536000808183608083E89A0895A82FB92F80E018
:1053700090E041E050EA609530E009C02D9182272D
:105380009795879510F084279527305EC8F36F5F57
:10539000A8F30895EADF8D939D930895CF93CFB737
:1053A000CF93DF93C3954F9BE9F74F9B0BC04F9B68
:1053B00009C04F9B07C04F9B05C04F9B03C04F9B2D
:1053C00001C089C06F93C0912501DD27C45DDE4F08
:1053D0002F9365E54F9B03C02F916F91E6CF0F93FD
:1053E0001F934F9320E040E15F9309B1047807FBDE
:1053F00027F93F9350E03BE039C0147840642F77A1
:10540000012F5F5F1EC0406819B114782F7752508A
:105410001FC0406409B12F770478D1F15F5F00C0ED
:1054200023C0406219B12F77147891F15F5F00C0FB
:1054300025C004781027515012F45D5F0000115010
:1054400027952C3F19B1C8F61478012701502795EC
:105450002C3FC8F64227499309B1047810274F73AF
:10546000115027952C3FA8F64695469519B114780A
:1054700079F00127015027952C3F98F66B5A60F37D
:10548000315009B1B0F600C011E01CBB002717C0B5
:105490003B503195C31BD04011E01CBB0881033C3D
:1054A000F9F00B34E9F0209123011981110F121347
:1054B000EDCF093651F10D3211F0013E39F700936D
:1054C0002A013F915F914F911F910F912F916F9101
:1054D000CCB3C0FD67CFDF91CF91CFBFCF911895EF
:1054E00020912A01222369F310912801112339F513
:1054F00034303AF130932801209324011091250192
:105500003BE0311B309325011CC000912801013084
:10551000B4F40AE53091000134FD14C00093000199
:10552000C8E1D1E013C0052710E000C000000BB9AE
:105530001AC0052710E0221F1DC010E021C04AE557
:1055400002C032ED432FC4E1D0E032E01AB114685A
:105550005F9A0BB11AB954E820E865E320FF0527EC
:105560000BB9279517951C3FF0F66695B8F7B1F77C
:1055700020FF05270BB9279517951C3FD0F62795D7
:10558000179517FF052700001C3F0BB9B0F62991AE
:105590003A9519F70B7710912901110FC651D04098
:1055A0000BB911F01093230111E01CBB00681AB174
:1055B0001B77402F4B7754E05A95F1F70BB91AB986
:1055C0004BB97FCF8EBD0DB407FEFDCF8EB50895CC
:1055D000DC01CB0121E1B695A795979587952A9592
:1055E000D1F7209146012817D9F080934601E09128
:1055F0004301F09144018DE40995E0914301F0915C
:10560000440180E00995E0914301F09144018091CB
:1056100046010995E0914301F091440180E009952C
:105620000895809145018CBD809142018DBD089502
:105630008823B1F08830E0F523E83BE23093440161
:1056400020934301843021F18530D0F0863029F158
:10565000863030F18730C1F483E0809347010895AC
:1056600082EE9AE2909344018093430181E080931B
:10567000470182E58093450181E0809342010895CE
:10568000823091F0833041F080EC8093470108959F
:1056900088E180934701089580E38093470108954E
:1056A0008CE080934701089580E680934701089538
:1056B00022EE3AE2309344012093430110924201DA
:1056C00091E090934701893041F08A3050F488305E
:1056D00081F683E580934501089582E58093450135
:1056E00008958B3021F08C3021F69093420181E5B2
:1056F00080934501089526B59091470186B5821B98
:105700008917E0F308951F93CF93DF93182FD8E004
:10571000C0E00BC02B98110FCC0F1C99CF5F2D9AB6
:10572000EADF2D98E8DFD15021F017FFF3CF2B9A55
:10573000F2CF8C2FDF91CF911F91089584B18C62AD
:1057400084B92A982D98D7DF2A9AD5DF2A98809194
:105750004301909144012AE2823E920719F010928F
:10576000460108955EDF10924601089584B1837D5D
:1057700084B985B1837D85B91CBC0895CF93DF932F
:10578000C0E202C0C15061F1E0914301F0914401D7
:105790008CEA0995E0914301F091440183E5099574
:1057A000E0914301F091440180E00995D82FE09108
:1057B0004301F091440180E00995D335A9F01CBC68
:1057C0009ADF2A9A98DF2A9896DF80914301909178
:1057D00044012AE2823E9207A9F623DFC150A1F6D6
:1057E00081E0DF91CF91089580E0DF91CF9108951E
:1057F000CF92DF92EF92FF926B017C01E9DE8C2D5C
:105800008170880F880F880FE0914301F091440167
:1058100080620995D701C60139E0B695A79597959D
:1058200087953A95D1F7E0914301F09144010995AC
:10583000D701C601B695A79597958795E091430145
:10584000F09144010995E0914301F091440180E019
:105850000995FF90EF90DF90CF900895CF92DF925F
:10586000EF92FF920F931F93CF93DF930F92CDB7D9
:10587000DEB76B017C01142F2983AADE8C2D817089
:10588000880F880F880FE0914301F09144018064F4
:105890000995D701C60159E0B695A79597958795C3
:1058A0005A95D1F7E0914301F09144010995D70150
:1058B000C601B695A79597958795E0914301F0911C
:1058C00044010995E0914301F0914401812F09952C
:1058D0002981222399F01F37E1F006B51EE1C701A7
:1058E000B60186DF8F3751F486B5801B813510F005
:1058F00006B51150112399F781E001C080E00F90A7
:10590000DF91CF911F910F91FF90EF90DF90CF909B
:1059100008958FE0ABD080E0F2CFCF92DF92EF928C
:10592000FF920F931F93CF93DF930F92CDB7DEB704
:105930006B017C0149834CDEE0914301F09144010D
:105940008CE40995D701C60129E0B695A7959795EE
:1059500087952A95D1F7E0914301F091440109958B
:10596000D701C601B695A79597958795E091430114
:10597000F09144010995E0914301F091440180E0E8
:10598000099549814F3FE1F006B51EE1C701B60117
:105990002FDF8F3F99F486B5801B813510F006B557
:1059A0001150112399F781E00F90DF91CF911F9152
:1059B0000F91FF90EF90DF90CF90089580E0F4CFAB
:1059C0008FE054D080E0F0CF1F93CF93DF930F92FE
:1059D000CDB7DEB7182FE0914301F091440180EA82
:1059E00099830995E0914301F09144019981892FB0
:1059F0000995E0914301F0914401812F0995E091CF
:105A00004301F091440180E009950F90DF91CF911F
:105A10001F9108951F93CF93DF9300D0CDB7DEB7CA
:105A2000182FE0914301F091440180EC6A8399833F
:105A30000995E0914301F09144019981892F0995DD
:105A4000E0914301F0914401812F0995E0914301D8
:105A5000F09144016A81862F09958EE107D080E09C
:105A60000F900F90DF91CF911F910895882349F0F7
:105A700030E026B596B5921B9035E0F33F5F3817BE
:105A8000C1F70895259A23982B9A50E217D05A957A
:105A9000E9F70895AC0188E605D0842F03D089E6A4
:105AA00001D0852F0FD028E030E0382780FB869585
:105AB00006D02A95D1F730FB02D000D06894239805
:105AC0002B9A16F02B98239AE0914801F091490106
:105AD0003197F0F72D9AE3B1E3FBE0914801F091A3
:105AE00049013197F0F72D98089520ECE7DF46F44F
:105AF0002A95E1F780E02AE1E5DF2A95E9F7DECF94
:105B000028E030E0DBDF869587F938272A95D1F742
:105B1000D5DF27F9322772F3D1DFD0CFDB01742F25
:105B2000B9DF84E2BFDFE1DF8D937A95D1F7089585
:105B3000DB01742FAFDF83EFB5DF8DE1B3DF84E6E8
:105B4000B1DF8D91AFDF82E7ADDFCFDF8078D9F7AE
:105B50007A9589F70895CF93DF93EC01898181309D
:105B600089F1823009F4B2C0833009F464C0843012
:105B7000A9F1873009F485C0853009F414C1863055
:105B800009F4A8C0883009F4E3C0893009F410C1D1
:105B90008A3009F43FC18B3009F46FC18C3009F4AD
:105BA00081C18D3009F493C18E3009F495C18F30D5
:105BB00009F40FC1803109F434C18F3709F452C19F
:105BC00080E030C0559A4E9B58C05D9A85E030DD2C
:105BD000109203015B9AB2DD80E024C08091030142
:105BE000882391F43B8120E08A8190E0822B932BE3
:105BF000AA2797FDA095BA2F80930C0190930D01D1
:105C0000A0930E01B0930F013F8120E08E8190E0C0
:105C1000822B932B909311018093100182E080934B
:105C200012018FEF24E031E0309327012093260109
:105C3000DF91CF910895E0914301F09144018A8171
:105C4000099580930401E0914301F09144018B8117
:105C5000099580930501E0914301F09144018C8105
:105C6000099580930601E0914301F09144018D81F3
:105C700009958093070184E0D5CF5D9888E0D8DC52
:105C8000A7CF80910301882391F43B8120E08A8192
:105C900090E0822B932BAA2797FDA095BA2F809393
:105CA0000C0190930D01A0930E01B0930F013F8161
:105CB00020E08E8190E0822B932B909311018093B2
:105CC000100183E0809312018FEFACCF4FDD5B9822
:105CD00080E0A8CF80910301882391F43B8120E0EC
:105CE0008A8190E0822B932BAA2797FDA095BA2F4B
:105CF00080930C0190930D01A0930E01B0930F01BE
:105D00003C818D81282F2F702093150190E0807F9A
:105D1000907082959295907F9827807F9827830F27
:105D2000911D909314018093130120FF02C0809372
:105D300016013F8120E08E8190E0822B932B90937F
:105D400011018093100181E0809312018FEF6ACFDF
:105D500080910301882391F43B8120E08A8190E0C7
:105D6000822B932BAA2797FDA095BA2F80930C0125
:105D700090930D01A0930E01B0930F0110921401A6
:105D800010921301109215013F8120E08E8190E066
:105D9000822B932B909311018093100184E08093C8
:105DA00012018FEF3FCFEADC8093040181E03ACF0C
:105DB00081E0809303018A819B81AC81BD818093C6
:105DC0000C0190930D01A0930E01B0930F0180E0A0
:105DD00029CF3B8120E08A8190E0822B932BAA2758
:105DE00097FDA095BA2F80930C0190930D01A0937D
:105DF0000E01B0930F013F8120E08E8190E0822B55
:105E0000932B909311018093100185E080931201F0
:105E10008FEF08CF8A81809317011092040181E0EF
:105E200001CF3B8120E08A8190E0822B932BAA272F
:105E300097FDA095BA2F80930C0190930D01A0932C
:105E40000E01B0930F013F8120E08E8190E0822B04
:105E5000932B909311018093100186E0809312019F
:105E60008FEFE0CE81E08093040110920501109243
:105E700006011092070184E0D5CE3B8120E08A81A3
:105E800090E0822B932B90934901809348012A9AAA
:105E9000229A83E0EBDD2A985B9A80E1E7DDF2DD70
:105EA00080E0C0CE80ECFEDD80E0FCDD8AE0DEDD5F
:105EB0002A9A85E0DBDD2A9885E0D8DD84B1837DF0
:105EC00084B985B1837D85B95B9880E0ABCE0DDE6A
:105ED0008093040181E0A6CE8A81E4DD80E0A2CE39
:105EE000EF92FF920F931F93CF93DF93482F792F59
:105EF000F62E80911201982F9250923068F08530E2
:105F000009F449C0FF24FA948F2DDF91CF911F919E
:105F10000F91FF90EF900895662399F100910C0185
:105F200010910D0120910E0130910F01C42FD72F38
:105F3000EE241DC0C80148DD888300910C0110913A
:105F40000D0120910E0130910F010F5F1F4F2F4F58
:105F50003F4F00930C0110930D0120930E013093DD
:105F60000F01E3942196EF1449F0809112018230E1
:105F700009F7C901B8013CDC8883DFCF87E08F15C2
:105F800018F2109212018F2DDF91CF911F910F9176
:105F9000FF90EF90089580910C0190910D01642F76
:105FA0004F2DBCDD80910C0190910D01A0910E014F
:105FB000B0910F018F0D911DA11DB11D80930C019A
:105FC00090930D01A0930E01B0930F019DCFFF920E
:105FD0000F931F93CF93DF93282F792FD62F3091D4
:105FE0001201313071F0343061F0363009F48EC076
:105FF000FF24FA948F2DDF91CF911F910F91FF9085
:106000000895DD2309F4AEC080910C0190910D013B
:10601000A0910E01B0910F01022F172FC0E0FF24B5
:1060200051C02091130130911401BC01CD01F80140
:1060300040812115310509F04FC021E00FDC80912E
:10604000100190911101019790931101809310011B
:106050000097E9F4109212018091150181FF39C077
:106060002091160130E080911301909114012817BE
:10607000390779F160910C0170910D0180910E0149
:1060800090910F01F801408148DCFF24F394809146
:106090000C0190910D01A0910E01B0910F0101969C
:1060A000A11DB11D80930C0190930D01A0930E01D1
:1060B000B0930F01CF5F0F5F1F4FCD1709F49ACF39
:1060C00030911201313009F4ACCFF8016081A2DCCB
:1060D000B6CFFF24F394DBCF20E0C0DB8091160124
:1060E000815080931601882309F0A9CF60910C019B
:1060F00070910D0180910E0190910F01F801408186
:106100000CDC809113018093160199CF80910C01D2
:1061100090910D01622F4D2F0BDD80910C0190911C
:106120000D01A0910E01B0910F018D0F911DA11DC8
:10613000B11D80930C0190930D01A0930E01B093BB
:106140000F0180911001909111018D1B9109909385
:10615000110180931001009729F410921201FF247D
:10616000F39448CFFF2446CF88E10FB6F89480938C
:106170006000109260000FBE579A209A8AB1886220
:106180008AB9289A5E9A8FEF95EAAEE081509040E6
:10619000A040E1F700C0000083E085BD5798DED83D
:1061A00078940E947B28FDCFF894FFCF5AFFFFFF21
:1061B000FFFFFFFFFFFFFFFFFFFFFFFFFFFFFFFFEF
:1061C000FFFFFFFFFFFFFFFFFFFFFFFFFFFFFFFFDF
:1061D000FFFFFFFFFFFFFFFFFFFFFFFFFFFFFFFFCF
:1061E000FFFFFFFFFFFFFFFFFFFFFFFFFFFFFFFFBF
:00000001FF
